{
  "transactions": [
    {
      "hash": "0x5c99545f60a8a3becdcbb66f8b2dc4f04897636a65ca4d44f7c7fc64862ec7e5",
      "transactionType": "CALL",
      "contractName": null,
      "contractAddress": "0x938d4948dfe59fb36667e1cd0dc41bbc076707c1",
      "function": "createOracle(address,address,uint256,address)",
      "arguments": [
        "0x7f0b394Bb1a2a4dF859f8a0b2A384f3d9d4E95cC",
        "0x9055eBE4E01040c0c4a6D9Bb84a13188981c62D4",
        "151977206709566966",
        "0x30988479C2E6a03E7fB65138b94762D41a733458"
      ],
      "transaction": {
        "from": "0x6539519e69343535a2af6583d9bae3ad74c6a293",
        "to": "0x938d4948dfe59fb36667e1cd0dc41bbc076707c1",
        "gas": "0xadddf",
        "value": "0x0",
        "input": "0x6fc04c5e0000000000000000000000007f0b394bb1a2a4df859f8a0b2a384f3d9d4e95cc0000000000000000000000009055ebe4e01040c0c4a6d9bb84a13188981c62d4000000000000000000000000000000000000000000000000021bee76dbe13df600000000000000000000000030988479c2e6a03e7fb65138b94762d41a733458",
        "nonce": "0x23",
        "chainId": "0xa867"
      },
      "additionalContracts": [
        {
          "transactionType": "CREATE",
          "address": "0x5a8b1fc452d8f1151a07b743687583050e4fad0f",
          "initCode": "0x60a060405260405161091b38038061091b8339818101604052810190610025919061065e565b610035828261007060201b60201c565b8173ffffffffffffffffffffffffffffffffffffffff1660808173ffffffffffffffffffffffffffffffffffffffff16815250505050610765565b61007f8261016060201b60201c565b8173ffffffffffffffffffffffffffffffffffffffff167f1cf3b03a6cf19fa2baba4df148e9dcabedea7f8a5c07840e207e5c089be95d3e60405160405180910390a25f8151111561014d576101478273ffffffffffffffffffffffffffffffffffffffff16635c60da1b6040518163ffffffff1660e01b8152600401602060405180830381865afa158015610117573d5f803e3d5ffd5b505050506040513d601f19601f8201168201806040525081019061013b91906106b8565b826102fb60201b60201c565b5061015c565b61015b61038160201b60201c565b5b5050565b5f8173ffffffffffffffffffffffffffffffffffffffff163b036101bb57806040517f64ced0ec0000000000000000000000000000000000000000000000000000000081526004016101b291906106f2565b60405180910390fd5b806101ed7fa3f0ad74e5423aebfd80d3ef4346578335a9a72aeaee59ff6cb3582b35133d505f1b6103bd60201b60201c565b5f015f6101000a81548173ffffffffffffffffffffffffffffffffffffffff021916908373ffffffffffffffffffffffffffffffffffffffff1602179055505f8173ffffffffffffffffffffffffffffffffffffffff16635c60da1b6040518163ffffffff1660e01b8152600401602060405180830381865afa158015610276573d5f803e3d5ffd5b505050506040513d601f19601f8201168201806040525081019061029a91906106b8565b90505f8173ffffffffffffffffffffffffffffffffffffffff163b036102f757806040517f4c9c8ce30000000000000000000000000000000000000000000000000000000081526004016102ee91906106f2565b60405180910390fd5b5050565b60605f808473ffffffffffffffffffffffffffffffffffffffff1684604051610324919061074f565b5f60405180830381855af49150503d805f811461035c576040519150601f19603f3d011682016040523d82523d5f602084013e610361565b606091505b50915091506103778583836103c660201b60201c565b9250505092915050565b5f3411156103bb576040517fb398979f00000000000000000000000000000000000000000000000000000000815260040160405180910390fd5b565b5f819050919050565b6060826103e1576103dc8261045960201b60201c565b610451565b5f825114801561040757505f8473ffffffffffffffffffffffffffffffffffffffff163b145b1561044957836040517f9996b31500000000000000000000000000000000000000000000000000000000815260040161044091906106f2565b60405180910390fd5b819050610452565b5b9392505050565b5f8151111561046b5780518082602001fd5b6040517fd6bda27500000000000000000000000000000000000000000000000000000000815260040160405180910390fd5b5f604051905090565b5f80fd5b5f80fd5b5f73ffffffffffffffffffffffffffffffffffffffff82169050919050565b5f6104d7826104ae565b9050919050565b6104e7816104cd565b81146104f1575f80fd5b50565b5f81519050610502816104de565b92915050565b5f80fd5b5f80fd5b5f601f19601f8301169050919050565b7f4e487b71000000000000000000000000000000000000000000000000000000005f52604160045260245ffd5b61055682610510565b810181811067ffffffffffffffff8211171561057557610574610520565b5b80604052505050565b5f61058761049d565b9050610593828261054d565b919050565b5f67ffffffffffffffff8211156105b2576105b1610520565b5b6105bb82610510565b9050602081019050919050565b5f5b838110156105e55780820151818401526020810190506105ca565b5f8484015250505050565b5f6106026105fd84610598565b61057e565b90508281526020810184848401111561061e5761061d61050c565b5b6106298482856105c8565b509392505050565b5f82601f83011261064557610644610508565b5b81516106558482602086016105f0565b91505092915050565b5f8060408385031215610674576106736104a6565b5b5f610681858286016104f4565b925050602083015167ffffffffffffffff8111156106a2576106a16104aa565b5b6106ae85828601610631565b9150509250929050565b5f602082840312156106cd576106cc6104a6565b5b5f6106da848285016104f4565b91505092915050565b6106ec816104cd565b82525050565b5f6020820190506107055f8301846106e3565b92915050565b5f81519050919050565b5f81905092915050565b5f6107298261070b565b6107338185610715565b93506107438185602086016105c8565b80840191505092915050565b5f61075a828461071f565b915081905092915050565b60805161019f61077c5f395f60bc015261019f5ff3fe608060405261000c61000e565b005b61001e610019610020565b61009a565b565b5f6100296100b9565b73ffffffffffffffffffffffffffffffffffffffff16635c60da1b6040518163ffffffff1660e01b8152600401602060405180830381865afa158015610071573d5f803e3d5ffd5b505050506040513d601f19601f82011682018060405250810190610095919061013e565b905090565b365f80375f80365f845af43d5f803e805f81146100b5573d5ff35b3d5ffd5b5f7f0000000000000000000000000000000000000000000000000000000000000000905090565b5f80fd5b5f73ffffffffffffffffffffffffffffffffffffffff82169050919050565b5f61010d826100e4565b9050919050565b61011d81610103565b8114610127575f80fd5b50565b5f8151905061013881610114565b92915050565b5f60208284031215610153576101526100e0565b5b5f6101608482850161012a565b9150509291505056fea2646970667358221220a735dbe5abce740bb14e675ba1faab62822d25955b97303218ae011a82cff6a264736f6c634300081600330000000000000000000000001f98f0eb72505e6a319431507aa7f05f6322f88b00000000000000000000000000000000000000000000000000000000000000400000000000000000000000000000000000000000000000000000000000000084be2030940000000000000000000000007f0b394bb1a2a4df859f8a0b2a384f3d9d4e95cc0000000000000000000000009055ebe4e01040c0c4a6d9bb84a13188981c62d4000000000000000000000000000000000000000000000000021bee76dbe13df600000000000000000000000030988479c2e6a03e7fb65138b94762d41a73345800000000000000000000000000000000000000000000000000000000"
        }
      ],
      "isFixedGasLimit": false
    }
  ],
  "receipts": [
    {
      "status": "0x1",
      "cumulativeGasUsed": "0x2f8ed4",
      "logs": [
        {
          "address": "0x5a8b1fc452d8f1151a07b743687583050e4fad0f",
          "topics": [
            "0x1cf3b03a6cf19fa2baba4df148e9dcabedea7f8a5c07840e207e5c089be95d3e",
            "0x0000000000000000000000001f98f0eb72505e6a319431507aa7f05f6322f88b"
          ],
          "data": "0x",
          "blockHash": "0x0be2ab633f1e01da62fad83e7667e5b28acd2cd8e3f1d08504dca3d899d6db8e",
          "blockNumber": "0x28ed68",
          "transactionHash": "0x5c99545f60a8a3becdcbb66f8b2dc4f04897636a65ca4d44f7c7fc64862ec7e5",
          "transactionIndex": "0x10",
          "logIndex": "0x2b",
          "removed": false
        },
        {
          "address": "0x5a8b1fc452d8f1151a07b743687583050e4fad0f",
          "topics": [
            "0x8be0079c531659141344cd1fd0a4f28419497f9722a3daafe3b4186f6b6457e0",
            "0x0000000000000000000000000000000000000000000000000000000000000000",
            "0x00000000000000000000000030988479c2e6a03e7fb65138b94762d41a733458"
          ],
          "data": "0x",
          "blockHash": "0x0be2ab633f1e01da62fad83e7667e5b28acd2cd8e3f1d08504dca3d899d6db8e",
          "blockNumber": "0x28ed68",
          "transactionHash": "0x5c99545f60a8a3becdcbb66f8b2dc4f04897636a65ca4d44f7c7fc64862ec7e5",
          "transactionIndex": "0x10",
          "logIndex": "0x2c",
          "removed": false
        },
        {
          "address": "0x5a8b1fc452d8f1151a07b743687583050e4fad0f",
          "topics": [
            "0xc7f505b2f371ae2175ee4913f4499e1f2633a7b5936321eed1cdaeb6115181d2"
          ],
          "data": "0x0000000000000000000000000000000000000000000000000000000000000001",
          "blockHash": "0x0be2ab633f1e01da62fad83e7667e5b28acd2cd8e3f1d08504dca3d899d6db8e",
          "blockNumber": "0x28ed68",
          "transactionHash": "0x5c99545f60a8a3becdcbb66f8b2dc4f04897636a65ca4d44f7c7fc64862ec7e5",
          "transactionIndex": "0x10",
          "logIndex": "0x2d",
          "removed": false
        },
        {
          "address": "0x938d4948dfe59fb36667e1cd0dc41bbc076707c1",
          "topics": [
            "0x8b69ae2d925f933c6780984a3334f9475a74b2063a8a94f93c70fc0cc4f44d6c",
            "0x0000000000000000000000007f0b394bb1a2a4df859f8a0b2a384f3d9d4e95cc",
            "0x0000000000000000000000005a8b1fc452d8f1151a07b743687583050e4fad0f",
            "0x0000000000000000000000009055ebe4e01040c0c4a6d9bb84a13188981c62d4"
          ],
          "data": "0x",
          "blockHash": "0x0be2ab633f1e01da62fad83e7667e5b28acd2cd8e3f1d08504dca3d899d6db8e",
          "blockNumber": "0x28ed68",
          "transactionHash": "0x5c99545f60a8a3becdcbb66f8b2dc4f04897636a65ca4d44f7c7fc64862ec7e5",
          "transactionIndex": "0x10",
          "logIndex": "0x2e",
          "removed": false
        }
      ],
      "logsBloom": "0x00100001000000000000000000000000000000000000000000800000000100000100000000000000004000000000000010000000000000000000400000000000000000000000000000020000001000001001000002000000000000000000000000081000030000000000000000002800000000000004000000000000000000400000000000000000000800000000080000000000000080000000000000000000000000000000000000000010080000000000000000100000000000000000000000000000000000000800000000000000000000080004000000800000000022000010400000000000000000000000000000000000000000100000000000000000",
      "type": "0x2",
      "transactionHash": "0x5c99545f60a8a3becdcbb66f8b2dc4f04897636a65ca4d44f7c7fc64862ec7e5",
      "transactionIndex": "0x10",
      "blockHash": "0x0be2ab633f1e01da62fad83e7667e5b28acd2cd8e3f1d08504dca3d899d6db8e",
      "blockNumber": "0x28ed68",
      "gasUsed": "0x7de07",
      "effectiveGasPrice": "0x1a8f3",
      "from": "0x6539519e69343535a2af6583d9bae3ad74c6a293",
      "to": "0x938d4948dfe59fb36667e1cd0dc41bbc076707c1",
      "contractAddress": null,
      "l1BaseFeeScalar": "0xf4240",
      "l1BlobBaseFee": "0x1",
      "l1BlobBaseFeeScalar": "0x0",
      "l1Fee": "0xa6a3ff1a88",
      "l1GasPrice": "0x146b8b5b",
      "l1GasUsed": "0x829"
    }
  ],
  "libraries": [],
  "pending": [],
  "returns": {},
  "timestamp": 1758053302,
  "chain": 43111,
  "commit": "ddedbb5"
}